{
  "_format": "hh-sol-artifact-1",
  "contractName": "MyEpicNFT",
  "sourceName": "contracts/MyEpicNFT.sol",
  "abi": [
    {
      "inputs": [],
      "stateMutability": "nonpayable",
      "type": "constructor"
    },
    {
      "anonymous": false,
      "inputs": [
        {
          "indexed": true,
          "internalType": "address",
          "name": "owner",
          "type": "address"
        },
        {
          "indexed": true,
          "internalType": "address",
          "name": "approved",
          "type": "address"
        },
        {
          "indexed": true,
          "internalType": "uint256",
          "name": "tokenId",
          "type": "uint256"
        }
      ],
      "name": "Approval",
      "type": "event"
    },
    {
      "anonymous": false,
      "inputs": [
        {
          "indexed": true,
          "internalType": "address",
          "name": "owner",
          "type": "address"
        },
        {
          "indexed": true,
          "internalType": "address",
          "name": "operator",
          "type": "address"
        },
        {
          "indexed": false,
          "internalType": "bool",
          "name": "approved",
          "type": "bool"
        }
      ],
      "name": "ApprovalForAll",
      "type": "event"
    },
    {
      "anonymous": false,
      "inputs": [
        {
          "indexed": false,
          "internalType": "address",
          "name": "_sender",
          "type": "address"
        },
        {
          "indexed": false,
          "internalType": "uint256",
          "name": "_tokenId",
          "type": "uint256"
        }
      ],
      "name": "NewEpicNFTMinted",
      "type": "event"
    },
    {
      "anonymous": false,
      "inputs": [
        {
          "indexed": true,
          "internalType": "address",
          "name": "from",
          "type": "address"
        },
        {
          "indexed": true,
          "internalType": "address",
          "name": "to",
          "type": "address"
        },
        {
          "indexed": true,
          "internalType": "uint256",
          "name": "tokenId",
          "type": "uint256"
        }
      ],
      "name": "Transfer",
      "type": "event"
    },
    {
      "inputs": [
        {
          "internalType": "address",
          "name": "",
          "type": "address"
        }
      ],
      "name": "_balanceOf",
      "outputs": [
        {
          "internalType": "uint256",
          "name": "",
          "type": "uint256"
        }
      ],
      "stateMutability": "view",
      "type": "function"
    },
    {
      "inputs": [
        {
          "internalType": "string",
          "name": "_uri",
          "type": "string"
        }
      ],
      "name": "_setBaseTokenURI",
      "outputs": [],
      "stateMutability": "nonpayable",
      "type": "function"
    },
    {
      "inputs": [
        {
          "internalType": "address",
          "name": "to",
          "type": "address"
        },
        {
          "internalType": "uint256",
          "name": "tokenId",
          "type": "uint256"
        }
      ],
      "name": "approve",
      "outputs": [],
      "stateMutability": "nonpayable",
      "type": "function"
    },
    {
      "inputs": [
        {
          "internalType": "address",
          "name": "owner",
          "type": "address"
        }
      ],
      "name": "balanceOf",
      "outputs": [
        {
          "internalType": "uint256",
          "name": "",
          "type": "uint256"
        }
      ],
      "stateMutability": "view",
      "type": "function"
    },
    {
      "inputs": [
        {
          "internalType": "uint256",
          "name": "tokenId",
          "type": "uint256"
        }
      ],
      "name": "getApproved",
      "outputs": [
        {
          "internalType": "address",
          "name": "",
          "type": "address"
        }
      ],
      "stateMutability": "view",
      "type": "function"
    },
    {
      "inputs": [],
      "name": "getPrice",
      "outputs": [
        {
          "internalType": "uint256",
          "name": "",
          "type": "uint256"
        }
      ],
      "stateMutability": "view",
      "type": "function"
    },
    {
      "inputs": [],
      "name": "getTotalNFTMintedSoFar",
      "outputs": [
        {
          "internalType": "uint256",
          "name": "",
          "type": "uint256"
        }
      ],
      "stateMutability": "view",
      "type": "function"
    },
    {
      "inputs": [],
      "name": "getUserNFTMintedSoFar",
      "outputs": [
        {
          "internalType": "uint256",
          "name": "",
          "type": "uint256"
        }
      ],
      "stateMutability": "view",
      "type": "function"
    },
    {
      "inputs": [
        {
          "internalType": "address",
          "name": "owner",
          "type": "address"
        },
        {
          "internalType": "address",
          "name": "operator",
          "type": "address"
        }
      ],
      "name": "isApprovedForAll",
      "outputs": [
        {
          "internalType": "bool",
          "name": "",
          "type": "bool"
        }
      ],
      "stateMutability": "view",
      "type": "function"
    },
    {
      "inputs": [],
      "name": "makeAnEpicNFT",
      "outputs": [],
      "stateMutability": "nonpayable",
      "type": "function"
    },
    {
      "inputs": [],
      "name": "name",
      "outputs": [
        {
          "internalType": "string",
          "name": "",
          "type": "string"
        }
      ],
      "stateMutability": "view",
      "type": "function"
    },
    {
      "inputs": [],
      "name": "owner",
      "outputs": [
        {
          "internalType": "address",
          "name": "",
          "type": "address"
        }
      ],
      "stateMutability": "view",
      "type": "function"
    },
    {
      "inputs": [
        {
          "internalType": "uint256",
          "name": "tokenId",
          "type": "uint256"
        }
      ],
      "name": "ownerOf",
      "outputs": [
        {
          "internalType": "address",
          "name": "",
          "type": "address"
        }
      ],
      "stateMutability": "view",
      "type": "function"
    },
    {
      "inputs": [
        {
          "internalType": "uint256",
          "name": "tokenId",
          "type": "uint256"
        }
      ],
      "name": "pickRandomColor",
      "outputs": [
        {
          "internalType": "string",
          "name": "",
          "type": "string"
        }
      ],
      "stateMutability": "view",
      "type": "function"
    },
    {
      "inputs": [
        {
          "internalType": "uint256",
          "name": "tokenId",
          "type": "uint256"
        }
      ],
      "name": "pickRandomFirstWord",
      "outputs": [
        {
          "internalType": "string",
          "name": "",
          "type": "string"
        }
      ],
      "stateMutability": "view",
      "type": "function"
    },
    {
      "inputs": [
        {
          "internalType": "uint256",
          "name": "tokenId",
          "type": "uint256"
        }
      ],
      "name": "pickRandomSecondWord",
      "outputs": [
        {
          "internalType": "string",
          "name": "",
          "type": "string"
        }
      ],
      "stateMutability": "view",
      "type": "function"
    },
    {
      "inputs": [
        {
          "internalType": "uint256",
          "name": "tokenId",
          "type": "uint256"
        }
      ],
      "name": "pickRandomThirdWord",
      "outputs": [
        {
          "internalType": "string",
          "name": "",
          "type": "string"
        }
      ],
      "stateMutability": "view",
      "type": "function"
    },
    {
      "inputs": [
        {
          "internalType": "address",
          "name": "from",
          "type": "address"
        },
        {
          "internalType": "address",
          "name": "to",
          "type": "address"
        },
        {
          "internalType": "uint256",
          "name": "tokenId",
          "type": "uint256"
        }
      ],
      "name": "safeTransferFrom",
      "outputs": [],
      "stateMutability": "nonpayable",
      "type": "function"
    },
    {
      "inputs": [
        {
          "internalType": "address",
          "name": "from",
          "type": "address"
        },
        {
          "internalType": "address",
          "name": "to",
          "type": "address"
        },
        {
          "internalType": "uint256",
          "name": "tokenId",
          "type": "uint256"
        },
        {
          "internalType": "bytes",
          "name": "_data",
          "type": "bytes"
        }
      ],
      "name": "safeTransferFrom",
      "outputs": [],
      "stateMutability": "nonpayable",
      "type": "function"
    },
    {
      "inputs": [
        {
          "internalType": "address",
          "name": "operator",
          "type": "address"
        },
        {
          "internalType": "bool",
          "name": "approved",
          "type": "bool"
        }
      ],
      "name": "setApprovalForAll",
      "outputs": [],
      "stateMutability": "nonpayable",
      "type": "function"
    },
    {
      "inputs": [
        {
          "internalType": "uint256",
          "name": "_newPrice",
          "type": "uint256"
        }
      ],
      "name": "setPrice",
      "outputs": [],
      "stateMutability": "nonpayable",
      "type": "function"
    },
    {
      "inputs": [
        {
          "internalType": "bytes4",
          "name": "interfaceId",
          "type": "bytes4"
        }
      ],
      "name": "supportsInterface",
      "outputs": [
        {
          "internalType": "bool",
          "name": "",
          "type": "bool"
        }
      ],
      "stateMutability": "view",
      "type": "function"
    },
    {
      "inputs": [],
      "name": "symbol",
      "outputs": [
        {
          "internalType": "string",
          "name": "",
          "type": "string"
        }
      ],
      "stateMutability": "view",
      "type": "function"
    },
    {
      "inputs": [
        {
          "internalType": "uint256",
          "name": "tokenId",
          "type": "uint256"
        }
      ],
      "name": "tokenURI",
      "outputs": [
        {
          "internalType": "string",
          "name": "",
          "type": "string"
        }
      ],
      "stateMutability": "view",
      "type": "function"
    },
    {
      "inputs": [],
      "name": "totalMinted",
      "outputs": [
        {
          "internalType": "uint256",
          "name": "",
          "type": "uint256"
        }
      ],
      "stateMutability": "view",
      "type": "function"
    },
    {
      "inputs": [],
      "name": "totalSupply",
      "outputs": [
        {
          "internalType": "uint256",
          "name": "",
          "type": "uint256"
        }
      ],
      "stateMutability": "view",
      "type": "function"
    },
    {
      "inputs": [
        {
          "internalType": "address",
          "name": "from",
          "type": "address"
        },
        {
          "internalType": "address",
          "name": "to",
          "type": "address"
        },
        {
          "internalType": "uint256",
          "name": "tokenId",
          "type": "uint256"
        }
      ],
      "name": "transferFrom",
      "outputs": [],
      "stateMutability": "nonpayable",
      "type": "function"
    }
  ],
  "bytecode": "0x608060405260006009556032600a55662386f26fc10000600b5560405180610100016040528060d38152602001620049eb60d39139600f90805190602001906200004b9291906200076b565b5060405180608001604052806056815260200162004abe60569139601090805190602001906200007d9291906200076b565b506040518060c001604052806040518060400160405280600681526020017f4e617275746f000000000000000000000000000000000000000000000000000081525081526020016040518060400160405280600681526020017f497461636869000000000000000000000000000000000000000000000000000081525081526020016040518060400160405280600681526020017f4b617a75746f000000000000000000000000000000000000000000000000000081525081526020016040518060400160405280600681526020017f4b7572697375000000000000000000000000000000000000000000000000000081525081526020016040518060400160405280600881526020017f48616368696d616e00000000000000000000000000000000000000000000000081525081526020016040518060400160405280600881526020017f52696e7461726f750000000000000000000000000000000000000000000000008152508152506011906006620001fb929190620007fc565b506040518060c001604052806040518060400160405280600981526020017f546f6f74686c657373000000000000000000000000000000000000000000000081525081526020016040518060400160405280600581526020017f447261636f00000000000000000000000000000000000000000000000000000081525081526020016040518060400160405280600681526020017f41736b6f6f6b000000000000000000000000000000000000000000000000000081525081526020016040518060400160405280600881526020017f476c617572756e6700000000000000000000000000000000000000000000000081525081526020016040518060400160405280600881526020017f4e6167656e64726100000000000000000000000000000000000000000000000081525081526020016040518060400160405280600481526020017f5279757500000000000000000000000000000000000000000000000000000000815250815250601290600662000379929190620007fc565b506040518060c001604052806040518060400160405280600981526020017f46616e746173746963000000000000000000000000000000000000000000000081525081526020016040518060400160405280600481526020017f457069630000000000000000000000000000000000000000000000000000000081525081526020016040518060400160405280600581526020017f4372617a7900000000000000000000000000000000000000000000000000000081525081526020016040518060400160405280600881526020017f5465727269626c6500000000000000000000000000000000000000000000000081525081526020016040518060400160405280600481526020017f57696c640000000000000000000000000000000000000000000000000000000081525081526020016040518060400160405280600681526020017f53706f6f6b7900000000000000000000000000000000000000000000000000008152508152506013906006620004f7929190620007fc565b506040518060c001604052806040518060400160405280600381526020017f726564000000000000000000000000000000000000000000000000000000000081525081526020016040518060400160405280600781526020017f233038433241380000000000000000000000000000000000000000000000000081525081526020016040518060400160405280600581526020017f626c61636b00000000000000000000000000000000000000000000000000000081525081526020016040518060400160405280600681526020017f79656c6c6f77000000000000000000000000000000000000000000000000000081525081526020016040518060400160405280600481526020017f626c75650000000000000000000000000000000000000000000000000000000081525081526020016040518060400160405280600581526020017f677265656e000000000000000000000000000000000000000000000000000000815250815250601490600662000675929190620007fc565b503480156200068357600080fd5b506040518060400160405280600781526020017f556d61724e4654000000000000000000000000000000000000000000000000008152506040518060400160405280600481526020017f554d4152000000000000000000000000000000000000000000000000000000008152508160009080519060200190620007089291906200076b565b508060019080519060200190620007219291906200076b565b50505033600c60006101000a81548173ffffffffffffffffffffffffffffffffffffffff021916908373ffffffffffffffffffffffffffffffffffffffff16021790555062000955565b8280546200077990620008f0565b90600052602060002090601f0160209004810192826200079d5760008555620007e9565b82601f10620007b857805160ff1916838001178555620007e9565b82800160010185558215620007e9579182015b82811115620007e8578251825591602001919060010190620007cb565b5b509050620007f8919062000863565b5090565b82805482825590600052602060002090810192821562000850579160200282015b828111156200084f5782518290805190602001906200083e9291906200076b565b50916020019190600101906200081d565b5b5090506200085f919062000882565b5090565b5b808211156200087e57600081600090555060010162000864565b5090565b5b80821115620008a657600081816200089c9190620008aa565b5060010162000883565b5090565b508054620008b890620008f0565b6000825580601f10620008cc5750620008ed565b601f016020900490600052602060002090810190620008ec919062000863565b5b50565b600060028204905060018216806200090957607f821691505b6020821081141562000920576200091f62000926565b5b50919050565b7f4e487b7100000000000000000000000000000000000000000000000000000000600052602260045260246000fd5b61408680620009656000396000f3fe608060405234801561001057600080fd5b50600436106101a95760003560e01c80638da5cb5b116100f9578063b88d4fde11610097578063cca3e83211610071578063cca3e832146104f4578063d554ae5a14610524578063de9d132f14610542578063e985e9c51461054c576101a9565b8063b88d4fde14610478578063c575757a14610494578063c87b56dd146104c4576101a9565b806398d5fdca116100d357806398d5fdca146103f0578063a22cb4651461040e578063a2309ff81461042a578063b187301f14610448576101a9565b80638da5cb5b1461039857806391b7f5ed146103b657806395d89b41146103d2576101a9565b80632de38d681161016657806359f4a51e1161014057806359f4a51e146102fe5780636352211e1461031c57806370a082311461034c5780637d4aafb41461037c576101a9565b80632de38d681461028257806342842e0e146102b2578063514dc8c6146102ce576101a9565b806301ffc9a7146101ae57806306fdde03146101de578063081812fc146101fc578063095ea7b31461022c57806318160ddd1461024857806323b872dd14610266575b600080fd5b6101c860048036038101906101c39190612b05565b61057c565b6040516101d5919061388a565b60405180910390f35b6101e661065e565b6040516101f391906138a5565b60405180910390f35b61021660048036038101906102119190612b98565b6106f0565b60405161022391906137fa565b60405180910390f35b61024660048036038101906102419190612ac9565b610775565b005b61025061088d565b60405161025d9190613b45565b60405180910390f35b610280600480360381019061027b91906129c3565b610893565b005b61029c60048036038101906102979190612b98565b6108f3565b6040516102a991906138a5565b60405180910390f35b6102cc60048036038101906102c791906129c3565b610a11565b005b6102e860048036038101906102e39190612b98565b610a31565b6040516102f591906138a5565b60405180910390f35b610306610b4f565b6040516103139190613b45565b60405180910390f35b61033660048036038101906103319190612b98565b610b60565b60405161034391906137fa565b60405180910390f35b6103666004803603810190610361919061295e565b610c12565b6040516103739190613b45565b60405180910390f35b61039660048036038101906103919190612b57565b610cca565b005b6103a0610d74565b6040516103ad91906137fa565b60405180910390f35b6103d060048036038101906103cb9190612b98565b610d9a565b005b6103da610e34565b6040516103e791906138a5565b60405180910390f35b6103f8610ec6565b6040516104059190613b45565b60405180910390f35b61042860048036038101906104239190612a8d565b610ed0565b005b610432611051565b60405161043f9190613b45565b60405180910390f35b610462600480360381019061045d9190612b98565b611057565b60405161046f91906138a5565b60405180910390f35b610492600480360381019061048d9190612a12565b611175565b005b6104ae60048036038101906104a99190612b98565b6111d7565b6040516104bb91906138a5565b60405180910390f35b6104de60048036038101906104d99190612b98565b6112f5565b6040516104eb91906138a5565b60405180910390f35b61050e6004803603810190610509919061295e565b611447565b60405161051b9190613b45565b60405180910390f35b61052c61145f565b6040516105399190613b45565b60405180910390f35b61054a6114a6565b005b61056660048036038101906105619190612987565b6116fb565b604051610573919061388a565b60405180910390f35b60007f80ac58cd000000000000000000000000000000000000000000000000000000007bffffffffffffffffffffffffffffffffffffffffffffffffffffffff1916827bffffffffffffffffffffffffffffffffffffffffffffffffffffffff1916148061064757507f5b5e139f000000000000000000000000000000000000000000000000000000007bffffffffffffffffffffffffffffffffffffffffffffffffffffffff1916827bffffffffffffffffffffffffffffffffffffffffffffffffffffffff1916145b8061065757506106568261178f565b5b9050919050565b60606000805461066d90613e14565b80601f016020809104026020016040519081016040528092919081815260200182805461069990613e14565b80156106e65780601f106106bb576101008083540402835291602001916106e6565b820191906000526020600020905b8154815290600101906020018083116106c957829003601f168201915b5050505050905090565b60006106fb826117f9565b61073a576040517f08c379a000000000000000000000000000000000000000000000000000000000815260040161073190613a85565b60405180910390fd5b6004600083815260200190815260200160002060009054906101000a900473ffffffffffffffffffffffffffffffffffffffff169050919050565b600061078082610b60565b90508073ffffffffffffffffffffffffffffffffffffffff168373ffffffffffffffffffffffffffffffffffffffff1614156107f1576040517f08c379a00000000000000000000000000000000000000000000000000000000081526004016107e890613ae5565b60405180910390fd5b8073ffffffffffffffffffffffffffffffffffffffff16610810611865565b73ffffffffffffffffffffffffffffffffffffffff16148061083f575061083e81610839611865565b6116fb565b5b61087e576040517f08c379a0000000000000000000000000000000000000000000000000000000008152600401610875906139c5565b60405180910390fd5b610888838361186d565b505050565b600a5481565b6108a461089e611865565b82611926565b6108e3576040517f08c379a00000000000000000000000000000000000000000000000000000000081526004016108da90613b05565b60405180910390fd5b6108ee838383611a04565b505050565b6060600061092761090384611c60565b6040516020016109139190613794565b604051602081830303815290604052611e0d565b90506011805490508161093a9190613e8f565b905060118181548110610976577f4e487b7100000000000000000000000000000000000000000000000000000000600052603260045260246000fd5b90600052602060002001805461098b90613e14565b80601f01602080910402602001604051908101604052809291908181526020018280546109b790613e14565b8015610a045780601f106109d957610100808354040283529160200191610a04565b820191906000526020600020905b8154815290600101906020018083116109e757829003601f168201915b5050505050915050919050565b610a2c83838360405180602001604052806000815250611175565b505050565b60606000610a65610a4184611c60565b604051602001610a5191906137d8565b604051602081830303815290604052611e0d565b905060148054905081610a789190613e8f565b905060148181548110610ab4577f4e487b7100000000000000000000000000000000000000000000000000000000600052603260045260246000fd5b906000526020600020018054610ac990613e14565b80601f0160208091040260200160405190810160405280929190818152602001828054610af590613e14565b8015610b425780601f10610b1757610100808354040283529160200191610b42565b820191906000526020600020905b815481529060010190602001808311610b2557829003601f168201915b5050505050915050919050565b6000610b5b6007611e40565b905090565b6000806002600084815260200190815260200160002060009054906101000a900473ffffffffffffffffffffffffffffffffffffffff169050600073ffffffffffffffffffffffffffffffffffffffff168173ffffffffffffffffffffffffffffffffffffffff161415610c09576040517f08c379a0000000000000000000000000000000000000000000000000000000008152600401610c0090613a05565b60405180910390fd5b80915050919050565b60008073ffffffffffffffffffffffffffffffffffffffff168273ffffffffffffffffffffffffffffffffffffffff161415610c83576040517f08c379a0000000000000000000000000000000000000000000000000000000008152600401610c7a906139e5565b60405180910390fd5b600360008373ffffffffffffffffffffffffffffffffffffffff1673ffffffffffffffffffffffffffffffffffffffff168152602001908152602001600020549050919050565b600c60009054906101000a900473ffffffffffffffffffffffffffffffffffffffff1673ffffffffffffffffffffffffffffffffffffffff163373ffffffffffffffffffffffffffffffffffffffff1614610d5a576040517f08c379a0000000000000000000000000000000000000000000000000000000008152600401610d5190613b25565b60405180910390fd5b8060089080519060200190610d70929190612782565b5050565b600c60009054906101000a900473ffffffffffffffffffffffffffffffffffffffff1681565b600c60009054906101000a900473ffffffffffffffffffffffffffffffffffffffff1673ffffffffffffffffffffffffffffffffffffffff163373ffffffffffffffffffffffffffffffffffffffff1614610e2a576040517f08c379a0000000000000000000000000000000000000000000000000000000008152600401610e2190613b25565b60405180910390fd5b80600b8190555050565b606060018054610e4390613e14565b80601f0160208091040260200160405190810160405280929190818152602001828054610e6f90613e14565b8015610ebc5780601f10610e9157610100808354040283529160200191610ebc565b820191906000526020600020905b815481529060010190602001808311610e9f57829003601f168201915b5050505050905090565b6000600b54905090565b610ed8611865565b73ffffffffffffffffffffffffffffffffffffffff168273ffffffffffffffffffffffffffffffffffffffff161415610f46576040517f08c379a0000000000000000000000000000000000000000000000000000000008152600401610f3d90613965565b60405180910390fd5b8060056000610f53611865565b73ffffffffffffffffffffffffffffffffffffffff1673ffffffffffffffffffffffffffffffffffffffff16815260200190815260200160002060008473ffffffffffffffffffffffffffffffffffffffff1673ffffffffffffffffffffffffffffffffffffffff16815260200190815260200160002060006101000a81548160ff0219169083151502179055508173ffffffffffffffffffffffffffffffffffffffff16611000611865565b73ffffffffffffffffffffffffffffffffffffffff167f17307eab39ab6107e8899845ad3d59bd9653f200f220920489ca2b5937696c3183604051611045919061388a565b60405180910390a35050565b60095481565b6060600061108b61106784611c60565b604051602001611077919061372d565b604051602081830303815290604052611e0d565b90506012805490508161109e9190613e8f565b9050601281815481106110da577f4e487b7100000000000000000000000000000000000000000000000000000000600052603260045260246000fd5b9060005260206000200180546110ef90613e14565b80601f016020809104026020016040519081016040528092919081815260200182805461111b90613e14565b80156111685780601f1061113d57610100808354040283529160200191611168565b820191906000526020600020905b81548152906001019060200180831161114b57829003601f168201915b5050505050915050919050565b611186611180611865565b83611926565b6111c5576040517f08c379a00000000000000000000000000000000000000000000000000000000081526004016111bc90613b05565b60405180910390fd5b6111d184848484611e4e565b50505050565b6060600061120b6111e784611c60565b6040516020016111f7919061370b565b604051602081830303815290604052611e0d565b90506013805490508161121e9190613e8f565b90506013818154811061125a577f4e487b7100000000000000000000000000000000000000000000000000000000600052603260045260246000fd5b90600052602060002001805461126f90613e14565b80601f016020809104026020016040519081016040528092919081815260200182805461129b90613e14565b80156112e85780601f106112bd576101008083540402835291602001916112e8565b820191906000526020600020905b8154815290600101906020018083116112cb57829003601f168201915b5050505050915050919050565b6060611300826117f9565b61133f576040517f08c379a000000000000000000000000000000000000000000000000000000000815260040161133690613a65565b60405180910390fd5b600060066000848152602001908152602001600020805461135f90613e14565b80601f016020809104026020016040519081016040528092919081815260200182805461138b90613e14565b80156113d85780601f106113ad576101008083540402835291602001916113d8565b820191906000526020600020905b8154815290600101906020018083116113bb57829003601f168201915b5050505050905060006113e9611eaa565b90506000815114156113ff578192505050611442565b60008251111561143457808260405160200161141c92919061366d565b60405160208183030381529060405292505050611442565b61143d84611f3c565b925050505b919050565b600e6020528060005260406000206000915090505481565b6000600e60003373ffffffffffffffffffffffffffffffffffffffff1673ffffffffffffffffffffffffffffffffffffffff16815260200190815260200160002054905090565b600a54600954106114ec576040517f08c379a00000000000000000000000000000000000000000000000000000000081526004016114e390613985565b60405180910390fd5b60016009546114fb9190613c49565b600981905550600061150d6007611e40565b9050600061151a826108f3565b9050600061152783611057565b90506000611534846111d7565b9050600083838360405160200161154d93929190613691565b6040516020818303038152906040529050600061156986610a31565b90506000600f8260108560405160200161158694939291906136c2565b604051602081830303815290604052905060006115cb846115a684611fe3565b6040516020016115b792919061374f565b604051602081830303815290604052611fe3565b90506000816040516020016115e091906137b6565b604051602081830303815290604052905061162f6040518060400160405280601581526020017f0a2d2d2d2d2d2d2d2d2d2d2d2d2d2d2d2d2d2d2d2d00000000000000000000008152506121a1565b611638816121a1565b6116766040518060400160405280601581526020017f2d2d2d2d2d2d2d2d2d2d2d2d2d2d2d2d2d2d2d2d0a00000000000000000000008152506121a1565b611680338a61223a565b61168a8982612258565b61169460076122cc565b6116b760405180606001604052806027815260200161402a602791398a336122e2565b7febb98688741ffa4c7589bf325de30cf7becb63de567842e1ccdb6cb949fdc82c338a6040516116e8929190613861565b60405180910390a1505050505050505050565b6000600560008473ffffffffffffffffffffffffffffffffffffffff1673ffffffffffffffffffffffffffffffffffffffff16815260200190815260200160002060008373ffffffffffffffffffffffffffffffffffffffff1673ffffffffffffffffffffffffffffffffffffffff16815260200190815260200160002060009054906101000a900460ff16905092915050565b60007f01ffc9a7000000000000000000000000000000000000000000000000000000007bffffffffffffffffffffffffffffffffffffffffffffffffffffffff1916827bffffffffffffffffffffffffffffffffffffffffffffffffffffffff1916149050919050565b60008073ffffffffffffffffffffffffffffffffffffffff166002600084815260200190815260200160002060009054906101000a900473ffffffffffffffffffffffffffffffffffffffff1673ffffffffffffffffffffffffffffffffffffffff1614159050919050565b600033905090565b816004600083815260200190815260200160002060006101000a81548173ffffffffffffffffffffffffffffffffffffffff021916908373ffffffffffffffffffffffffffffffffffffffff160217905550808273ffffffffffffffffffffffffffffffffffffffff166118e083610b60565b73ffffffffffffffffffffffffffffffffffffffff167f8c5be1e5ebec7d5bd14f71427d1e84f3dd0314c0f7b2291e5b200ac8c7c3b92560405160405180910390a45050565b6000611931826117f9565b611970576040517f08c379a0000000000000000000000000000000000000000000000000000000008152600401611967906139a5565b60405180910390fd5b600061197b83610b60565b90508073ffffffffffffffffffffffffffffffffffffffff168473ffffffffffffffffffffffffffffffffffffffff1614806119ea57508373ffffffffffffffffffffffffffffffffffffffff166119d2846106f0565b73ffffffffffffffffffffffffffffffffffffffff16145b806119fb57506119fa81856116fb565b5b91505092915050565b8273ffffffffffffffffffffffffffffffffffffffff16611a2482610b60565b73ffffffffffffffffffffffffffffffffffffffff1614611a7a576040517f08c379a0000000000000000000000000000000000000000000000000000000008152600401611a7190613aa5565b60405180910390fd5b600073ffffffffffffffffffffffffffffffffffffffff168273ffffffffffffffffffffffffffffffffffffffff161415611aea576040517f08c379a0000000000000000000000000000000000000000000000000000000008152600401611ae190613945565b60405180910390fd5b611af5838383612381565b611b0060008261186d565b6001600360008573ffffffffffffffffffffffffffffffffffffffff1673ffffffffffffffffffffffffffffffffffffffff1681526020019081526020016000206000828254611b509190613d2a565b925050819055506001600360008473ffffffffffffffffffffffffffffffffffffffff1673ffffffffffffffffffffffffffffffffffffffff1681526020019081526020016000206000828254611ba79190613c49565b92505081905550816002600083815260200190815260200160002060006101000a81548173ffffffffffffffffffffffffffffffffffffffff021916908373ffffffffffffffffffffffffffffffffffffffff160217905550808273ffffffffffffffffffffffffffffffffffffffff168473ffffffffffffffffffffffffffffffffffffffff167fddf252ad1be2c89b69c2b068fc378daa952ba7f163c4a11628f55a4df523b3ef60405160405180910390a4505050565b60606000821415611ca8576040518060400160405280600181526020017f30000000000000000000000000000000000000000000000000000000000000008152509050611e08565b600082905060005b60008214611cda578080611cc390613e46565b915050600a82611cd39190613c9f565b9150611cb0565b60008167ffffffffffffffff811115611d1c577f4e487b7100000000000000000000000000000000000000000000000000000000600052604160045260246000fd5b6040519080825280601f01601f191660200182016040528015611d4e5781602001600182028036833780820191505090505b5090505b60008514611e0157600182611d679190613d2a565b9150600a85611d769190613e8f565b6030611d829190613c49565b60f81b818381518110611dbe577f4e487b7100000000000000000000000000000000000000000000000000000000600052603260045260246000fd5b60200101907effffffffffffffffffffffffffffffffffffffffffffffffffffffffffffff1916908160001a905350600a85611dfa9190613c9f565b9450611d52565b8093505050505b919050565b600081604051602001611e209190613656565b6040516020818303038152906040528051906020012060001c9050919050565b600081600001549050919050565b611e59848484611a04565b611e6584848484612386565b611ea4576040517f08c379a0000000000000000000000000000000000000000000000000000000008152600401611e9b90613905565b60405180910390fd5b50505050565b606060088054611eb990613e14565b80601f0160208091040260200160405190810160405280929190818152602001828054611ee590613e14565b8015611f325780601f10611f0757610100808354040283529160200191611f32565b820191906000526020600020905b815481529060010190602001808311611f1557829003601f168201915b5050505050905090565b6060611f47826117f9565b611f86576040517f08c379a0000000000000000000000000000000000000000000000000000000008152600401611f7d90613ac5565b60405180910390fd5b6000611f90611eaa565b90506000815111611fb05760405180602001604052806000815250611fdb565b80611fba84611c60565b604051602001611fcb92919061366d565b6040516020818303038152906040525b915050919050565b6060600082519050600081141561200c576040518060200160405280600081525091505061219c565b6000600360028361201d9190613c49565b6120279190613c9f565b60046120339190613cd0565b905060006020826120449190613c49565b67ffffffffffffffff811115612083577f4e487b7100000000000000000000000000000000000000000000000000000000600052604160045260246000fd5b6040519080825280601f01601f1916602001820160405280156120b55781602001600182028036833780820191505090505b5090506000604051806060016040528060408152602001613fea604091399050600181016020830160005b868110156121595760038101905062ffffff818a015116603f8160121c168401518060081b905060ff603f83600c1c1686015116810190508060081b905060ff603f8360061c1686015116810190508060081b905060ff603f831686015116810190508060e01b905080845260048401935050506120e0565b50600386066001811461217357600281146121835761218e565b613d3d60f01b600283035261218e565b603d60f81b60018303525b508484525050819450505050505b919050565b612237816040516024016121b591906138a5565b6040516020818303038152906040527f41304fac000000000000000000000000000000000000000000000000000000007bffffffffffffffffffffffffffffffffffffffffffffffffffffffff19166020820180517bffffffffffffffffffffffffffffffffffffffffffffffffffffffff838183161783525050505061251d565b50565b612254828260405180602001604052806000815250612546565b5050565b612261826117f9565b6122a0576040517f08c379a000000000000000000000000000000000000000000000000000000000815260040161229790613a25565b60405180910390fd5b806006600084815260200190815260200160002090805190602001906122c7929190612782565b505050565b6001816000016000828254019250508190555050565b61237c8383836040516024016122fa939291906138c7565b6040516020818303038152906040527fe3849f79000000000000000000000000000000000000000000000000000000007bffffffffffffffffffffffffffffffffffffffffffffffffffffffff19166020820180517bffffffffffffffffffffffffffffffffffffffffffffffffffffffff838183161783525050505061251d565b505050565b505050565b60006123a78473ffffffffffffffffffffffffffffffffffffffff166125a1565b15612510578373ffffffffffffffffffffffffffffffffffffffff1663150b7a026123d0611865565b8786866040518563ffffffff1660e01b81526004016123f29493929190613815565b602060405180830381600087803b15801561240c57600080fd5b505af192505050801561243d57506040513d601f19601f8201168201806040525081019061243a9190612b2e565b60015b6124c0573d806000811461246d576040519150601f19603f3d011682016040523d82523d6000602084013e612472565b606091505b506000815114156124b8576040517f08c379a00000000000000000000000000000000000000000000000000000000081526004016124af90613905565b60405180910390fd5b805181602001fd5b63150b7a0260e01b7bffffffffffffffffffffffffffffffffffffffffffffffffffffffff1916817bffffffffffffffffffffffffffffffffffffffffffffffffffffffff191614915050612515565b600190505b949350505050565b60008151905060006a636f6e736f6c652e6c6f679050602083016000808483855afa5050505050565b61255083836125b4565b61255d6000848484612386565b61259c576040517f08c379a000000000000000000000000000000000000000000000000000000000815260040161259390613905565b60405180910390fd5b505050565b600080823b905060008111915050919050565b600073ffffffffffffffffffffffffffffffffffffffff168273ffffffffffffffffffffffffffffffffffffffff161415612624576040517f08c379a000000000000000000000000000000000000000000000000000000000815260040161261b90613a45565b60405180910390fd5b61262d816117f9565b1561266d576040517f08c379a000000000000000000000000000000000000000000000000000000000815260040161266490613925565b60405180910390fd5b61267960008383612381565b6001600360008473ffffffffffffffffffffffffffffffffffffffff1673ffffffffffffffffffffffffffffffffffffffff16815260200190815260200160002060008282546126c99190613c49565b92505081905550816002600083815260200190815260200160002060006101000a81548173ffffffffffffffffffffffffffffffffffffffff021916908373ffffffffffffffffffffffffffffffffffffffff160217905550808273ffffffffffffffffffffffffffffffffffffffff16600073ffffffffffffffffffffffffffffffffffffffff167fddf252ad1be2c89b69c2b068fc378daa952ba7f163c4a11628f55a4df523b3ef60405160405180910390a45050565b82805461278e90613e14565b90600052602060002090601f0160209004810192826127b057600085556127f7565b82601f106127c957805160ff19168380011785556127f7565b828001600101855582156127f7579182015b828111156127f65782518255916020019190600101906127db565b5b5090506128049190612808565b5090565b5b80821115612821576000816000905550600101612809565b5090565b600061283861283384613b91565b613b60565b90508281526020810184848401111561285057600080fd5b61285b848285613dd2565b509392505050565b600061287661287184613bc1565b613b60565b90508281526020810184848401111561288e57600080fd5b612899848285613dd2565b509392505050565b6000813590506128b081613f8d565b92915050565b6000813590506128c581613fa4565b92915050565b6000813590506128da81613fbb565b92915050565b6000815190506128ef81613fbb565b92915050565b600082601f83011261290657600080fd5b8135612916848260208601612825565b91505092915050565b600082601f83011261293057600080fd5b8135612940848260208601612863565b91505092915050565b60008135905061295881613fd2565b92915050565b60006020828403121561297057600080fd5b600061297e848285016128a1565b91505092915050565b6000806040838503121561299a57600080fd5b60006129a8858286016128a1565b92505060206129b9858286016128a1565b9150509250929050565b6000806000606084860312156129d857600080fd5b60006129e6868287016128a1565b93505060206129f7868287016128a1565b9250506040612a0886828701612949565b9150509250925092565b60008060008060808587031215612a2857600080fd5b6000612a36878288016128a1565b9450506020612a47878288016128a1565b9350506040612a5887828801612949565b925050606085013567ffffffffffffffff811115612a7557600080fd5b612a81878288016128f5565b91505092959194509250565b60008060408385031215612aa057600080fd5b6000612aae858286016128a1565b9250506020612abf858286016128b6565b9150509250929050565b60008060408385031215612adc57600080fd5b6000612aea858286016128a1565b9250506020612afb85828601612949565b9150509250929050565b600060208284031215612b1757600080fd5b6000612b25848285016128cb565b91505092915050565b600060208284031215612b4057600080fd5b6000612b4e848285016128e0565b91505092915050565b600060208284031215612b6957600080fd5b600082013567ffffffffffffffff811115612b8357600080fd5b612b8f8482850161291f565b91505092915050565b600060208284031215612baa57600080fd5b6000612bb884828501612949565b91505092915050565b612bca81613d5e565b82525050565b612bd981613d70565b82525050565b6000612bea82613c06565b612bf48185613c1c565b9350612c04818560208601613de1565b612c0d81613f7c565b840191505092915050565b6000612c2382613c11565b612c2d8185613c2d565b9350612c3d818560208601613de1565b612c4681613f7c565b840191505092915050565b6000612c5c82613c11565b612c668185613c3e565b9350612c76818560208601613de1565b80840191505092915050565b60008154612c8f81613e14565b612c998186613c3e565b94506001821660008114612cb45760018114612cc557612cf8565b60ff19831686528186019350612cf8565b612cce85613bf1565b60005b83811015612cf057815481890152600182019150602081019050612cd1565b838801955050505b50505092915050565b6000612d0e603283613c2d565b91507f4552433732313a207472616e7366657220746f206e6f6e20455243373231526560008301527f63656976657220696d706c656d656e74657200000000000000000000000000006020830152604082019050919050565b6000612d74601c83613c2d565b91507f4552433732313a20746f6b656e20616c7265616479206d696e746564000000006000830152602082019050919050565b6000612db4600a83613c3e565b91507f54484952445f574f5244000000000000000000000000000000000000000000006000830152600a82019050919050565b6000612df4602483613c2d565b91507f4552433732313a207472616e7366657220746f20746865207a65726f2061646460008301527f72657373000000000000000000000000000000000000000000000000000000006020830152604082019050919050565b6000612e5a601983613c2d565b91507f4552433732313a20617070726f766520746f2063616c6c6572000000000000006000830152602082019050919050565b6000612e9a606d83613c3e565b91507f222c20226465736372697074696f6e223a2022416e204e46542066726f6d207460008301527f686520686967686c79206163636c61696d65642073717561726520636f6c6c6560208301527f6374696f6e2e222c2022696d616765223a2022646174613a696d6167652f737660408301527f672b786d6c3b6261736536342c000000000000000000000000000000000000006060830152606d82019050919050565b6000612f4c602983613c2d565b91507f54686520746f74616c206e756d626572206f66204e465473206861766520626560008301527f656e206d696e74656400000000000000000000000000000000000000000000006020830152604082019050919050565b6000612fb2600b83613c3e565b91507f5345434f4e445f574f52440000000000000000000000000000000000000000006000830152600b82019050919050565b6000612ff2602c83613c2d565b91507f4552433732313a206f70657261746f7220717565727920666f72206e6f6e657860008301527f697374656e7420746f6b656e00000000000000000000000000000000000000006020830152604082019050919050565b6000613058600d83613c3e565b91507f3c2f746578743e3c2f7376673e000000000000000000000000000000000000006000830152600d82019050919050565b6000613098603883613c2d565b91507f4552433732313a20617070726f76652063616c6c6572206973206e6f74206f7760008301527f6e6572206e6f7220617070726f76656420666f7220616c6c00000000000000006020830152604082019050919050565b60006130fe602a83613c2d565b91507f4552433732313a2062616c616e636520717565727920666f7220746865207a6560008301527f726f2061646472657373000000000000000000000000000000000000000000006020830152604082019050919050565b6000613164602983613c2d565b91507f4552433732313a206f776e657220717565727920666f72206e6f6e657869737460008301527f656e7420746f6b656e00000000000000000000000000000000000000000000006020830152604082019050919050565b60006131ca602e83613c2d565b91507f45524337323155524953746f726167653a2055524920736574206f66206e6f6e60008301527f6578697374656e7420746f6b656e0000000000000000000000000000000000006020830152604082019050919050565b6000613230600283613c3e565b91507f227d0000000000000000000000000000000000000000000000000000000000006000830152600282019050919050565b6000613270602083613c2d565b91507f4552433732313a206d696e7420746f20746865207a65726f20616464726573736000830152602082019050919050565b60006132b0603183613c2d565b91507f45524337323155524953746f726167653a2055524920717565727920666f722060008301527f6e6f6e6578697374656e7420746f6b656e0000000000000000000000000000006020830152604082019050919050565b6000613316602c83613c2d565b91507f4552433732313a20617070726f76656420717565727920666f72206e6f6e657860008301527f697374656e7420746f6b656e00000000000000000000000000000000000000006020830152604082019050919050565b600061337c602983613c2d565b91507f4552433732313a207472616e73666572206f6620746f6b656e2074686174206960008301527f73206e6f74206f776e00000000000000000000000000000000000000000000006020830152604082019050919050565b60006133e2602f83613c2d565b91507f4552433732314d657461646174613a2055524920717565727920666f72206e6f60008301527f6e6578697374656e7420746f6b656e00000000000000000000000000000000006020830152604082019050919050565b6000613448600a83613c3e565b91507f7b226e616d65223a2022000000000000000000000000000000000000000000006000830152600a82019050919050565b6000613488602183613c2d565b91507f4552433732313a20617070726f76616c20746f2063757272656e74206f776e6560008301527f72000000000000000000000000000000000000000000000000000000000000006020830152604082019050919050565b60006134ee600a83613c3e565b91507f46495253545f574f5244000000000000000000000000000000000000000000006000830152600a82019050919050565b600061352e601d83613c3e565b91507f646174613a6170706c69636174696f6e2f6a736f6e3b6261736536342c0000006000830152601d82019050919050565b600061356e603183613c2d565b91507f4552433732313a207472616e736665722063616c6c6572206973206e6f74206f60008301527f776e6572206e6f7220617070726f7665640000000000000000000000000000006020830152604082019050919050565b60006135d4600583613c3e565b91507f434f4c4f520000000000000000000000000000000000000000000000000000006000830152600582019050919050565b6000613614601483613c2d565b91507f53656e646572206973206e6f74206f776e6572210000000000000000000000006000830152602082019050919050565b61365081613dc8565b82525050565b60006136628284612c51565b915081905092915050565b60006136798285612c51565b91506136858284612c51565b91508190509392505050565b600061369d8286612c51565b91506136a98285612c51565b91506136b58284612c51565b9150819050949350505050565b60006136ce8287612c82565b91506136da8286612c51565b91506136e68285612c82565b91506136f28284612c51565b91506136fd8261304b565b915081905095945050505050565b600061371682612da7565b91506137228284612c51565b915081905092915050565b600061373882612fa5565b91506137448284612c51565b915081905092915050565b600061375a8261343b565b91506137668285612c51565b915061377182612e8d565b915061377d8284612c51565b915061378882613223565b91508190509392505050565b600061379f826134e1565b91506137ab8284612c51565b915081905092915050565b60006137c182613521565b91506137cd8284612c51565b915081905092915050565b60006137e3826135c7565b91506137ef8284612c51565b915081905092915050565b600060208201905061380f6000830184612bc1565b92915050565b600060808201905061382a6000830187612bc1565b6138376020830186612bc1565b6138446040830185613647565b81810360608301526138568184612bdf565b905095945050505050565b60006040820190506138766000830185612bc1565b6138836020830184613647565b9392505050565b600060208201905061389f6000830184612bd0565b92915050565b600060208201905081810360008301526138bf8184612c18565b905092915050565b600060608201905081810360008301526138e18186612c18565b90506138f06020830185613647565b6138fd6040830184612bc1565b949350505050565b6000602082019050818103600083015261391e81612d01565b9050919050565b6000602082019050818103600083015261393e81612d67565b9050919050565b6000602082019050818103600083015261395e81612de7565b9050919050565b6000602082019050818103600083015261397e81612e4d565b9050919050565b6000602082019050818103600083015261399e81612f3f565b9050919050565b600060208201905081810360008301526139be81612fe5565b9050919050565b600060208201905081810360008301526139de8161308b565b9050919050565b600060208201905081810360008301526139fe816130f1565b9050919050565b60006020820190508181036000830152613a1e81613157565b9050919050565b60006020820190508181036000830152613a3e816131bd565b9050919050565b60006020820190508181036000830152613a5e81613263565b9050919050565b60006020820190508181036000830152613a7e816132a3565b9050919050565b60006020820190508181036000830152613a9e81613309565b9050919050565b60006020820190508181036000830152613abe8161336f565b9050919050565b60006020820190508181036000830152613ade816133d5565b9050919050565b60006020820190508181036000830152613afe8161347b565b9050919050565b60006020820190508181036000830152613b1e81613561565b9050919050565b60006020820190508181036000830152613b3e81613607565b9050919050565b6000602082019050613b5a6000830184613647565b92915050565b6000604051905081810181811067ffffffffffffffff82111715613b8757613b86613f4d565b5b8060405250919050565b600067ffffffffffffffff821115613bac57613bab613f4d565b5b601f19601f8301169050602081019050919050565b600067ffffffffffffffff821115613bdc57613bdb613f4d565b5b601f19601f8301169050602081019050919050565b60008190508160005260206000209050919050565b600081519050919050565b600081519050919050565b600082825260208201905092915050565b600082825260208201905092915050565b600081905092915050565b6000613c5482613dc8565b9150613c5f83613dc8565b9250827fffffffffffffffffffffffffffffffffffffffffffffffffffffffffffffffff03821115613c9457613c93613ec0565b5b828201905092915050565b6000613caa82613dc8565b9150613cb583613dc8565b925082613cc557613cc4613eef565b5b828204905092915050565b6000613cdb82613dc8565b9150613ce683613dc8565b9250817fffffffffffffffffffffffffffffffffffffffffffffffffffffffffffffffff0483118215151615613d1f57613d1e613ec0565b5b828202905092915050565b6000613d3582613dc8565b9150613d4083613dc8565b925082821015613d5357613d52613ec0565b5b828203905092915050565b6000613d6982613da8565b9050919050565b60008115159050919050565b60007fffffffff0000000000000000000000000000000000000000000000000000000082169050919050565b600073ffffffffffffffffffffffffffffffffffffffff82169050919050565b6000819050919050565b82818337600083830152505050565b60005b83811015613dff578082015181840152602081019050613de4565b83811115613e0e576000848401525b50505050565b60006002820490506001821680613e2c57607f821691505b60208210811415613e4057613e3f613f1e565b5b50919050565b6000613e5182613dc8565b91507fffffffffffffffffffffffffffffffffffffffffffffffffffffffffffffffff821415613e8457613e83613ec0565b5b600182019050919050565b6000613e9a82613dc8565b9150613ea583613dc8565b925082613eb557613eb4613eef565b5b828206905092915050565b7f4e487b7100000000000000000000000000000000000000000000000000000000600052601160045260246000fd5b7f4e487b7100000000000000000000000000000000000000000000000000000000600052601260045260246000fd5b7f4e487b7100000000000000000000000000000000000000000000000000000000600052602260045260246000fd5b7f4e487b7100000000000000000000000000000000000000000000000000000000600052604160045260246000fd5b6000601f19601f8301169050919050565b613f9681613d5e565b8114613fa157600080fd5b50565b613fad81613d70565b8114613fb857600080fd5b50565b613fc481613d7c565b8114613fcf57600080fd5b50565b613fdb81613dc8565b8114613fe657600080fd5b5056fe4142434445464748494a4b4c4d4e4f505152535455565758595a6162636465666768696a6b6c6d6e6f707172737475767778797a303132333435363738392b2f416e204e4654207769746820494420257320686173206265656e206d696e74656420746f202573a26469706673582212203d15252d7941e1f8739a44f7146813c1e9e60f04b3669c575e6087df3badadd464736f6c634300080000333c73766720786d6c6e733d27687474703a2f2f7777772e77332e6f72672f323030302f73766727207072657365727665417370656374526174696f3d27784d696e594d696e206d656574272076696577426f783d273020302033353020333530273e3c7374796c653e2e62617365207b2066696c6c3a2077686974653b20666f6e742d66616d696c793a2073657269663b20666f6e742d73697a653a20323470783b207d3c2f7374796c653e3c726563742077696474683d273130302527206865696768743d2731303025272066696c6c3d27272f3e3c7465787420783d273530252720793d273530252720636c6173733d27626173652720646f6d696e616e742d626173656c696e653d276d6964646c652720746578742d616e63686f723d276d6964646c65273e",
  "linkReferences": {},
  "deployedLinkReferences": {}
}